:020000040800F2
:10000000F8FF0120419C0D084BA00D0839A00D08F8
:100010004DA00D0859A00D0865A00D0800000000B6
:1000200000000000000000000000000071A00D08AA
:1000300073A00D0800000000BDA20D0895BB0C08C0
:1000400001000A085DA10D0869A10D0871A10D0844
:1000500049540D0801000A08F1A00D08F7A00D0889
:10006000FDA00D0803A10D0809A10D084DC40C0841
:100070005DC40C086DC40C087DC40C088DC40C084C
:100080009DC40C08ADC40C0801000A0801000A0850
:10009000393B0D083F3B0D08453B0D080FA10D08EE
:1000A00085A10D088BA10D089DA10D08A3A10D0828
:1000B000A9A10D08AFA10D08B5A10D0829A20D0831
:1000C0002FA20D0835A20D083BA20D0801000A0859
:1000D00001000A0805A20D080BA20D0811A20D08C7
:1000E00033A10D0863A10D0881A00D08E1A10D0841
:1000F000E7A10D08FFA10D08F9A10D08BDC40C086A
:1001000001000A08115C0D08BDA10D0801000A08D4
:1001100017A20D081DA20D08D5A10D08DBA10D0821
:10012000CDC40C08DDC40C08EDC40C08FDC40C08DB
:100130000DC50C08000000000000000001000A08C6
:1001400001000A0801000A0801000A0875A00D084C
:100150001DC50C082DC50C083DC50C0823A20D08B3
:1001600001000A0801000A0801000A0801000A0843
:1001700001000A0801000A08000000000000000059
:0801800001000A0801000A0851
:02000004080AE8
:10000000FEE70000034B1B685B685A6912685A617F
:10001000704700BF6C030020C460056146618761C2
:10002000C0F81C80C0F82090C0F824A0C0F828B008
:10003000C0F82CD080ED0C8B80ED0E9B80ED10ABCA
:10004000C0F808E000F0EABC30B51C4CD4E9A55378
:10005000C01AC109C0F3021E6B5C012202FA0EF243
:1000600023EA02036B54D4F8A02283094FEA101C40
:10007000B2EB901FD4F88C0288BFC4F8A032C15CE8
:100080004FEA9C0E0CF0030303255B0005FA03F313
:1000900021EA030300F80E300CF1010CD4F88C02B5
:1000A0004FEA9C0E0CF0030310F80E105A0041FAB0
:1000B00002F202F00302022AE7D030BD3400002031
:1000C000054A0346506A1A6841688A4202D3521AA6
:1000D0001A6070470068F7E7340000207F289DBF52
:1000E000024B185CC0F34000002070471CDD0D0877
:1000F0007F289DBF024B185CC0F3C00000207047F2
:100100001CDD0D087F289DBF024B185CC0F38000EA
:10011000002070471CDD0D087F289DBF024B185C36
:10012000C0F30010002070471CDD0D087F289DBF24
:10013000024B185CC0F34010002070471CDD0D0816
:1001400008B50246FFF7E8FF00B12032104608BDAF
:1001500008B50246FFF7EAFF00B1203A104608BD95
:10016000D0E9023293423DBF5A1C826018784FF0AA
:10017000FF3070470369272B2BD0222B29D0A3F106
:10018000620113291ED8174ACA40D2071AD54269FC
:10019000272A1ED0222A1CD0722B1CD1662A06D1F7
:1001A0008269272A15D0222A13D0722B15D14369D0
:1001B000622B0CD1806927280BD0A0F12203584272
:1001C00058417047662BF0D14269722AE8D000206E
:1001D000704701207047662BF6D0622BF7D1436938
:1001E000722BE6E71100090002690A2A10B50446DD
:1001F00035D1836A013383620123A269E3626369B3
:100200006261226F2361002A31D0616E8A423FBF52
:10021000501CA16E20678A5C28BF0022A2613BB9F6
:10022000E2692261226A6261626AA261636623678F
:1002300063690D2B08D1A3690A229342626103D13D
:10024000D4E901039847A061A369013306D163692A
:100250005A1C03D00A2B1CBF0A23A36110BDC36A1A
:10026000092A04BF073323F007030133C5E7D4E9A4
:1002700001039847A061DBE770B504460D460026F0
:100280002269531C01D1304670BD0A2A08D115B12C
:10029000636B002BF7D02046FFF7A6FF0126EFE7A0
:1002A0001046FFF71BFF18B12046FFF79DFFE7E759
:1002B000232A08D12046FFF797FF23695A1CDFD075
:1002C0000A2BF7D1DCE75C2ADDD163690A2BDAD18E
:1002D0002046FFF789FFE7E710F001021CD110F07C
:1002E00003030CD000F00F03062B15D00A2B11D1FD
:1002F00000090E3803288CBF00200120704770B120
:1003000002793A2A08D02D2A08D18068B0FA80F004
:1003100040097047104670470120704718467047E3
:10032000C20702D540F001007047830710D00309CF
:1003300000F00F00062803D1D80040F002007047FB
:10034000A3F10F00022809D8064B53F8200070478C
:1003500030B103793A2B03D1806870470248704767
:1003600002487047ECD90D0870E80D0878E80D08D0
:10037000D0E90432013B036152F82300704703695E
:10038000C9431944436953F82100704731B1826869
:1003900001F00303134304BF0B6883607047036AD3
:1003A0001B8B012B1EBFC3685B18C3607047836A39
:1003B00010B504469B6F406A9847238B226A01332D
:1003C000918C9BB29942238338BF938410BD038BD9
:1003D00010B5013B0383836A0446D3F88030406A3A
:1003E000984720460121BDE81040FFF7D8BFF7B578
:1003F0001E4659B111F0030511D14F68FCB2944269
:100400000DD13F0A01F10804BD4201DB03B0F0BD8C
:1004100054F8041B01900135B0470198F4E73346C6
:1004200003B0BDE8F04018472DE9F04F2DED028BE9
:10043000044608EE102A83B00D4698461BB1CB8ABD
:1004400043F00803CB8218EE103AEB83236ADA8A72
:1004500042F03002DA821B78002B4CD1A36A606A2A
:10046000D3F8B06018EE102A43462946B44603B0CC
:10047000BDEC028BBDE8F04F6047DB6A03EBC60BB7
:1004800013F83630053B012B1DD84FF0000917E05B
:10049000EB6A03EBC90213F83930062B0ED1DBF8F7
:1004A00004105368994209D1A36ABBF802201B6962
:1004B000606A1F460023B8470AF1010A09F10109E1
:1004C0002B8D4B45E4DC0136236A1A8DB242D4DC15
:1004D000BAF1000FC2D0A36ACDF80080D3F8B4609F
:1004E000606A18EE103A52462946B04703B0BDEC98
:1004F000028BBDE8F08F0026B246E5E7F8B504466A
:100500000E4611461A4600238578076983700361F9
:100510000E4BFFF76CFF6368BBB9618A51B1228A49
:1005200042B9A36A606AD3F89C309847A36A606AAC
:100530001B6C9847238A628A31462046FFF774FF76
:10054000003D18BF0125A5702761F8BD25420A08A6
:10055000024B89689D22FFF74ABF00BFD9420A08B3
:10056000024B89686B22FFF742BF00BF91150A0852
:10057000836A10B50446D3F88430406A0021984756
:10058000A36A606A1B6B10219847A36A606AD3F85C
:10059000C8300121984720460321BDE81040FFF7ED
:1005A000FEBE38B5836A04465B6C406A00229847F9
:1005B000A36A606AD3F8BC5000231A461946A847BC
:1005C0002046BDE83840FFF7D3BF836A89681B6DBA
:1005D000406A002209091847836A8968DB6B406A10
:1005E000184700000F302DE9F84306095DD06A4B2B
:1005F0001B685B681B89002B57D1684CB4F82C33FF
:10060000002B0D460CBF4FF0010E4FF0000E50D1E5
:10061000D4F8A002D4F89072874239D9D4F88CC2A9
:10062000411E614400221AE00132964251D913F072
:100630000C0F1ED10132964240F2A48013F0300F0D
:100640001CD10132964240F2A08013F0C00F1AD1A3
:100650000132964240F29C800130B84218D211F823
:10066000013F13F0030FDFD013F00C0F4FF0000227
:10067000E0D013F0300F4FF00002E2D013F0C00FC3
:100680004FF00002E4D00130B8424FF00002E6D350
:10069000BEF1000F09D133F06BFFD4F8A002D4F8FB
:1006A000907287424FF0010EB8D800231846BDE87B
:1006B000F883D4E9CC239A42AAD333F059FFD4F873
:1006C000A002D4F89072B84238BF4FF0010EA5D303
:1006D000EBE78000012A02BF431C9B08C4F8A0324C
:1006E000D4F8A432811A4F1C834238BF03464FEA24
:1006F000970EC4F8A43207F003031CF80E904FEADB
:1007000043080123023103FA08F343EA090388424C
:100710000CF80E3013D34FF002084FEA910CD4F8C6
:100720008CE201F003031EF80C905B0008FA03F35F
:10073000013143EA090388420EF80C30EDD2D4F8B7
:100740003033D4F898823344C4F8303308EB0713BD
:1007500018461201002139F0F1FA3E010346002D3E
:10076000A4D00022D4F8940248F80620F908012207
:10077000445C07F0070702FA07F727434754184677
:10078000BDE8F88380000130A4E780000230A1E7D3
:10079000800003309EE700BF6C030020340000207F
:1007A0002DE9F04F894683B00446002800F0C1804F
:1007B000002900F08280DFF89081D8F800305B6873
:1007C000198900297FD15F4DD5F89832D5F89072FC
:1007D000A4EB030A4FEA1A1303F1010C09F10F000D
:1007E000BE00BCEB870F4FEA101001968E4680F0DA
:1007F000A780D5F88CB201276646B10806F0030C35
:100800001BF801104FEA4C0C41FA0CF101F0030106
:1008100002295DD029B90EF1010E0EEB07018842C5
:1008200057D8B84244D025D3BE44704556D9002A83
:1008300049D0D5F894224FEADA1A03F0070312F8E8
:100840000A10194101F001014846FFF7CBFE0646A8
:10085000002838D03A01214639F02CFAD8F8003077
:100860005B681B892BBB2046FFF7EEFB304603B0CD
:10087000BDE8F08F184484463B444FF003094FEA2B
:100880009C06D5F88C720CF00302B95D520009FA8F
:1008900002F20CF1010C21EA02029C45BA55EED19C
:1008A000D5F8A0328208B3EB900F88BFC5F8A0221C
:1008B0002646304603B0BDE8F08F234B1B685B68CB
:1008C0001E89002ED0D00026304603B0BDE8F08F40
:1008D000013701990136B1428FD1A2E719183B4483
:1008E000994213D94FF002088E469E08D5F88C1213
:1008F00003F0030211F806C0520008FA02F20133B5
:1009000042EA0C029E458A55EFD17146D5F8A432D1
:10091000C21B8B4238BF0B46120104EB07100021AB
:10092000C5F8A43239F00AFA2646304603B0BDE8CD
:10093000F08F0146484603B0BDE8F04FFFF752BEC6
:1009400001276EE7340000206C03002008461146A2
:1009500026F026B938B505460C46FFF7BDFC38B180
:100960002846FFF7DDFC0BF08DFD031B5842584174
:1009700038BD10B4026A0446407801280B4604D101
:100980005DF8044B104606F0B5BCA16A606A5DF8DC
:10099000044B183106F0BDBC10B4026A044640781E
:1009A00001280B4604D15DF8044B104606F0A2BCAA
:1009B000A16A606A5DF8044B203106F0AABC4923A5
:1009C000482237F031B94F234E2237F02DB90000BD
:1009D0000F49D1F8883043F47003C1F888300D4BCB
:1009E0001A68002042F001021A6098601A6822F02A
:1009F000847222F480321A60074A5A601A6822F41C
:100A000080221A60D8604FF000638B60704700BF8F
:100A100000ED00E00038024010300024034B1B685A
:100A20005B685A6902605861002070476C030020BF
:100A3000034B1B685B689A69C0E9002198617047A5
:100A40006C030020054B1B685A6893691968916113
:100A500010B15A6818461047704700BF6C03002059
:100A600010B500210446FFF7BDFD18B914B12046AA
:100A70000DF0CCF810BDF8B5446A06460D46BCB181
:100A8000D4E900132B448B4223D905F1080300223B
:100A900019442046FFF784FE0246B8B96168204633
:100AA0000831FFF77DFE63682360336A6360346258
:100AB000802D2F4638BF802707F10800FFF7D0FFB1
:100AC0000023076043600446706202E023682B4401
:100AD000236060680544656008342044F8BD38B57B
:100AE0000D460C211446FFF7C6FF4FF49D72C0E976
:100AF0000124056038BD00002DE9F0410646302094
:100B00000D4690461F46FFF7ABFF072D04460570C4
:100B1000C0F80C8001D0012D1ED1D8F80820C2F3F6
:100B20000F12A2821020FFF79BFF0378012262F3CD
:100B30000203037004232061E38427832020FFF74E
:100B40008FFF336A63600023A360F369E06233B907
:100B5000F4612046BDE8F081044B5A5DE1E71A4696
:100B60009B68002BFBD19460F3E700BFC0410E08E7
:100B700070B513464278012A05460C4604D10A4650
:100B80000721FFF7B9FFA061A669E268284646235E
:100B90003146FFF7B3FCB08A70BD036A10B51A8BFB
:100BA0000446FFF7E5FF01462046BDE81040FFF789
:100BB000E0BE70B54378012B05460C4606D1036AAA
:100BC0000A461B8B0221FFF797FF2061A26821696B
:100BD00028464C23BDE87040FFF790BC0021FFF78A
:100BE00001BD10B501210446FFF7FCFC10B92046F9
:100BF0000DF00CF810BD10B501220C46FFF7D0FD2A
:100C000018B914B120460DF001F810BDF8B504462E
:100C10001D46D0E9000383420F46164608D3103024
:100C2000C100A068FFF7E7FF2368A06010332360CE
:100C3000D4E90103421C626053F8301067F31701D6
:100C400043F8301003EBC002D6705560F8BD10B405
:100C50008469CAB20023616C5DF8044BFFF7D6BF0C
:100C600038B5D0E903329A4204460D4608D3103312
:100C700099004069FFF7BFFFE36860611033E360EC
:100C8000D4E90432591C216142F8235038BD2DE9C2
:100C9000F04105460F461446164696B931462046A1
:100CA00014F000FC014600F10808ACB90A462846D9
:100CB0003946FFF714FF01462846FFF7D1FF012010
:100CC00008E0013E31462846FFF759FBFFF704FBD9
:100CD0000028E2D1BDE8F0812846FFF749FB06462F
:100CE000FFF71EFB013C48F82400002EDDD0B307BF
:100CF000DBD1686A00F108039E42D6D342681344F0
:100D00009E42D2D273681B0A0233A2EB8303436074
:100D1000CBE70000034B1B685A681389013313812A
:100D2000704700BF6C030020034B1B685A6813898F
:100D3000013B1381704700BF6C0300202DE9F04395
:100D40002A4C00254FF0030CD4F88C6200210131AD
:100D500043189A0803F00303B25C5B0042FA03F302
:100D600003F00303022BF2D0D4F89832090103EB0D
:100D700000108E0889B300EB860603681A0729D194
:100D8000D4F898125A1AC2F3011E99424FEA9217E8
:100D90004FEA4E0E4FEA12121CD8D4F89C12994218
:100DA00018D9D4F88C9219F8078048FA0EF303F09A
:100DB00003030CFA0EF1012B41EA08010AD104EBFE
:100DC000450E3F2D09F807109ABF0135AEF8AC2249
:100DD000C4F8A8320430B042CFD12DB1013D04EBAC
:100DE0004503B3F8AC02AFE7BDE8F0833400002060
:100DF000A9B32DE9F0411A4E0F46051F00244FF00C
:100E0000030855F8043F1A0704F101041AD1D6F873
:100E10009822981AC0F3011C9A424FEA90114FEAA7
:100E20004C0C4FEA10100DD8D6F89C229A4209D9E2
:100E3000D6F88C2212F801E04EFA0CF303F003030B
:100E4000012B03D0A742DCD1BDE8F08108FA0CFCED
:100E50004CEA0E0C02F801C0FFF770FFF2E7704792
:100E6000340000202DE9F04F834CD4F8A83297B01D
:100E7000002B00F0E480D4F8901200268900C4F81A
:100E8000A8628946002948D00027D4F88C02BA0805
:100E900007F00303825C5B0042FA03F303F00303F1
:100EA000032B0D4647D001378F42EED3D4F8A8323A
:100EB000002BE4D1D4F8A432AB4238BF5D1C002D26
:100EC00000F0CF804FF00009CC464F46032304E0EA
:100ED000012A44D00137AF421FD0D4F88C024FEA28
:100EE000970807F0030610F80810760041FA06F29A
:100EF00002F00302022A00EB970E2BD0032AE7D15F
:100F0000022202FA06F6B946013721EA0601AF428B
:100F100000F808104FF0000CDFD1584AC4F8A49232
:100F2000126852680023C4F8A0321389013B138170
:100F300017B0BDE8F08F3846FFF700FFD4F89012E5
:100F400001378900B9420D469FD8D4F8A832002B4A
:100F500095D1AFE7BCF1000F61D1B946BAE7D4F83B
:100F600094224FEAD70B07F0070A12F80BC04CFA8D
:100F70000AF0C00702EBD70251D5D4F89812380115
:100F800051F800E001EB0710BEF1000F3AD002AAC1
:100F9000B2210CF0FDF8029A032372B3EFF3108232
:100FA00072B6B4F8F8110B0443BFB4F8F81101F1AC
:100FB000FF3109B24FF6FF71A4F8F81182F31088DF
:100FC000029A0399019204A80091FFF725F80028DE
:100FD00041D1DDE9001210460CF0D7FAFFF712F804
:100FE0000323EFF3108172B6B4F8F821013212B284
:100FF000A4F8F821E2B181F31088D4F8942212F811
:101000000BC05A44012101FA0AFA2CEA0A0C82F8B0
:1010100000C0D4F88C2212F8081002EB080E03FA74
:1010200006F621EA06018EF800104FF0010C51E798
:10103000D4F8FC21BAB10022A4F8F821DBE7D4F8F7
:101040009052D4F8A432AD00AB4238BF5D1C002DE5
:101050007FF438AF05E0059909480FF0B7FA03238C
:10106000BFE7A94659E794F80422002AE3D14FF0DC
:101070000102A4F8F821BEE7340000206C03002030
:10108000ECEB0D08394BD3E9A6122DE9F047521AC3
:101090000024D3E9A361C0E90144C0E90344C0E9E5
:1010A000054402604FEA810CA646274625462246A3
:1010B000A1462146A04616F8093049000B4103F02D
:1010C0000303012B47D0022B41D0002B38D0013233
:1010D00094450ED04FEA920902F0030116F8093048
:1010E0004FEA410A43FA0AF313F0030301D0012B3C
:1010F000E1D1012D11D0022D02BF416901314161C1
:101100008169A94238BF856194450FD0012B26D053
:101110004FEA920902F00301CDE701690131016153
:101120008169A94238BF85619445EFD1474500D90F
:10113000C76024014FEA0E13C0E90143BDE8F08700
:101140000EF1010EC0F808E001371D46BFE701347B
:1011500044600135BBE7013444601D46B7E7B8453C
:1011600001D2C760B8460027D2E700BF3400002094
:10117000044B1A685268128912B908B1FEF764BFAD
:10118000704700BF6C030020036810B5044613B11C
:101190004068FFF7EDFF2046BDE81040FFF7E8BFCD
:1011A000014441F20553884204D398B2012838BF64
:1011B0000120704710F8012B03EB43135340F2E773
:1011C0002DE9F04780460E46FFF7EAFF124B5C6AB6
:1011D00007460CB920461AE0D4F80C90002504F11B
:1011E000180A4D4501D12468F3E7236933F8153017
:1011F000BB420ED163695B5DB3420AD15AF8250048
:101200003246414638F0C2FD18B960682844BDE84E
:10121000F0870135E5E700BF340000202DE9F843F1
:1012200081460E46FFF7CCFF0246002840F08B8037
:10123000FF2E03D9454946480CF0DCFC454CD4F858
:10124000E001751C90B1D4E979132B448B4229D964
:101250002944FFF7A5FA0746D8B90246D4F8E811A1
:10126000D4F8E001FFF79CFAC4F8E071802D2F4616
:1012700038BF80273846FFF7B1FCC4F8E001D0BB87
:101280002846FFF7ABFCC4F8E00198BB28460CF0F9
:10129000BDFCD4F8E4312B44C4F8E431D4F8E03197
:1012A000002BE3D0D4F8E831D4F8E07131461F4484
:1012B00048462B44C4F8E831FFF772FF49468046A0
:1012C000324638464FF0000938F0F4FC07F8069033
:1012D000636AD3E90253AB4225D36D000A2D38BFB0
:1012E0000A25C5EBC5001830FFF778FC48B9C4F8EB
:1012F000E001CBE72F460023C4F8E471C4F8E831DD
:10130000D0E700F11803626A026003EB8503036112
:1013100003EB450343615368D268C0F80C90134453
:10132000C0E901356062636AD3E903215B6921F892
:1013300012809E54911D636A43F82170D9685868E1
:101340000131D96002441046BDE8F88334AA0D0883
:1013500004160E083400002010B5044638F028FDAD
:1013600001462046BDE81040FFF758BFF7B5866933
:1013700096F84C20092A05460F461FD1D6E91510CC
:10138000FFF74CFF902F04460ED1C100002241F020
:10139000020105F128000BF0C1FD28B14268D30716
:1013A00020D542F0010002E0200140F00200014699
:1013B000284603B0BDE8F040FFF752BC0A2A07D127
:1013C0000022D6E91510334609F0CCFD0246E6E7C7
:1013D0000B2A0CD10096D6E915100023012209F042
:1013E000B9FE0246716C2846FFF779FBDFE70C2A4D
:1013F00013D1D6E915100A2906D8FFF70FFF30B12F
:10140000000140F00600D2E7FFF7DAFEF7E7D6E981
:101410001521074812F042FAE3E70D2A04D1D6E974
:10142000151012F075FADCE7120142F00A00BEE76F
:10143000F8170E0807B5019001A8FEF741FE019AC2
:10144000036933F8120003B05DF804FB07B501909F
:1014500001A8FEF735FE019B4269D05C03B05DF840
:1014600004FB07B5019001A8FEF72AFE019B063395
:1014700050F8230003B05DF804FB13B5019001A8F8
:101480000C46FEF71DFE019B4269D25C22600633CA
:1014900050F8230002B010BD2DE9F04F85B005468D
:1014A00000AF0C4611B90121116015E011F00308DD
:1014B0001BD10B79682B07D1CB681B0913608C6893
:1014C000002CF0D04FF0010804F00F03022B0FD1D5
:1014D0002109B8F1000FE7D0AB6A686ADB6A002225
:1014E00098471437BD46BDE8F08F4FF00008EBE792
:1014F000B8F1000F02D1A3681B091360666804F1FC
:10150000080A360A06F1FF3BD1460AEB860659F86F
:10151000040B0009FFF79AFFB1458344F7D10BF1A3
:10152000070323F00703ADEB030D6B4699465AF80A
:10153000040B3B6007F10C010009FFF79EFFFA68FE
:101540007A600146484638F0B5FB7A683B68B24598
:10155000914418D159461846FFF760FEAB6A014620
:10156000DB6A686A00229847B8F1000FB9D00C34E2
:10157000A642B6D054F8041BAB6A686A1B6D002201
:1015800009099847F4E74FF02E0209F8012BCEE73E
:10159000836A37B504460D465B6B406A0021984765
:1015A000A36A606A1B6B1021984701AA294620464E
:1015B000FFF772FF01992046FFF7DBF903B030BD5A
:1015C0002DE9F0472C4DDFF8B480D5F88CC200240B
:1015D000D5E9A66E04600C6014601C606C6A0CB1E6
:1015E000444505D11968126811441960BDE8F087B7
:1015F0000568D4F81490013505600D68E7683D442E
:101600000D60E56809EB050AD1452CD314F00F07EE
:1016100030D1B44222D3744520D2A51B4FEA95198C
:101620004FEA151A1CF80990C5F301156D0049FA27
:1016300005F505F00305012D10D101370AEB07056B
:101640004FEA950905F003051CF809906D0049FA69
:1016500005F505F00305022DEFD03F011D68246854
:101660003D441D60BBE715686F1C19F8015B2F44F2
:101670001760C9E70027F1E73400002014130E08B3
:1016800030B50023202411F8012F0AB9027030BDB3
:10169000120600F101051FD50BB1047028460B7826
:1016A000124A03F07F036BB9013A12F8013F13F0BD
:1016B000800F054600F101000BD003F07F032B7073
:1016C0000123E0E712F9015B002DFBDA013BDBB2FD
:1016D000E9E700F8013CE8E7012B04BF0470284665
:1016E0000B7800F8013B0223CDE700BF39AA0D08B3
:1016F00038B50129044638BF01210025084621607C
:101700006560FFF7ADF92573A06038BD38B50546B3
:101710000C460131FFF7ECFF6C6038BD037B10B560
:10172000044613B98068FFF723FD0023A36010BDB2
:1017300010B5044690B1C3684068984704F1500062
:10174000FFF7ECFF04F16000FFF7E8FF206CFFF704
:101750000FFD2046BDE81040FFF70ABD10BD4368ED
:101760008B422CBF591A00214160704738B504469E
:10177000154662688A42084603D929448A4201D83C
:10178000606038BDA368521A1844194438F0C2FA90
:101790006268521B6260F4E708B5024800210CF051
:1017A00029FA00BF04160E08D0E90013994210B5BB
:1017B00004460BD1037B0BB1FFF7EEFF80680131CC
:1017C000FFF719FA2368A06001332360D4E90132DE
:1017D0000021D154A06810BD38B544680368214485
:1017E000994205460ED9037B0BB1FFF7D5FF01F1F6
:1017F000100424F00704083480682146FFF7FBF941
:101800002C60A86038BD38B504460D46FFF7E4FFEC
:10181000D4E901301D446560184438BD10B50C464C
:101820000121FFF7F0FF047010BD7F29F8B50C46C9
:10183000CEB204D80121FFF7E6FF0670F8BD06F02E
:101840003F06B1F5006FC1F3871546F0800607D259
:101850000221FFF7D8FF65F03F0505704670EDE700
:1018600005F03F05B1F5803FC1F3073745F080052E
:1018700008D20321FFF7C7FF67F01F070770457005
:101880008670DBE70421FFF7BEFFA40C07F03F07DB
:1018900064F00F0467F07F07047047708570C670AE
:1018A000CCE770B504460E4611461546FFF794FF87
:1018B000D4E901302A463146184438F02BFA6268E0
:1018C0002A44626070BD13B504460846019138F0A1
:1018D0006FFA01990246204602B0BDE81040FFF7BA
:1018E000E0BF00002DE9F04F426E85B08046FAB1AE
:1018F000026FEAB929216030FFF790FFD8F8102075
:10190000C8F81C20D8F81420C8F82020D8F81820CF
:10191000C8F82420D8F868201178C8F81010517839
:10192000C8F814109278C8F818200322C8F870205C
:101930000021C8F854104046FEF79EFCD8F83060ED
:10194000D8F82820D8F82C40C8F84420002EC8F831
:10195000484008DA082288F84C200136C8F8306080
:1019600005B0BDE8F08F04D0072288F84C20013E76
:10197000F4E7002840D0D8F83420EABB062288F8E3
:101980004C20D8E90F206FF000415518013C30F889
:101990001550AC42E4D023D9D8F838108A420AD383
:1019A00008314900FFF727F9D8F83820C8F8400077
:1019B0000832C8F83820D8E90F21501CC8F83C007C
:1019C00021F81240D8F830200132C8F83020C7E79B
:1019D000013AC8F83C20D8F83020013AC8F8302045
:1019E000D8F83C20551830F81550AC42F0D3B7D099
:1019F000022288F84C20B3E7D8F810506C1C01D1B3
:101A00000022F6E74046FEF7B5FB0190002800F003
:101A1000F581002288F84C20D8F81020752A53D080
:101A2000622A08D1D8F81420722A52D1019F0225C7
:101A30000D22002413E0722A07D1D8F81420622A5C
:101A4000F4D0662A49D10522D3E7662A49D1D8F8CD
:101A50001420722AF7D0019C01250C22002798F847
:101A60004C1000293FD188F84C203DB14046FEF78C
:101A7000BBFB022D02D14046FEF7B6FBD8F8102082
:101A80004046222A14BF4FF0270A4FF0220AFEF7E1
:101A9000ABFBD8F81020524528D1D8F81420924535
:101AA00024D14046FEF7A0FB4046FEF79DFB4FF0D9
:101AB000030924B1BC4908F16000FFF704FF4FF0AF
:101AC000000B08F1500538E0012500240C222746C0
:101AD000C5E701250D220024C0E7019F01250C2246
:101AE000A7E73546F1E79142BFD039E74FF001094A
:101AF000DFE7924518D008F1600BD8F810100CB150
:101B00007B2937D05C2940F06E8140460291FEF778
:101B10006BFBD8F810B00299002F00F08A8028469D
:101B2000FFF783FE594632E1514628460BF1010B7F
:101B3000FFF77BFE4046FEF757FBD8F81020511CFC
:101B400000F05681B9F1010F02D10A2A00F050814C
:101B5000CB45CED3594608F15000FFF700FE0121D6
:101B60004046FEF789FB4046FEF704FB00287FF461
:101B700053AFF5E64046FEF737FBD8F810107B2947
:101B80000AD12846FFF74AFE4046FEF72DFB7B218F
:101B90002846FFF743FEB0E728215846FFF73EFEF0
:101BA000D8F864300022D8F81010481C11D052BB6D
:101BB0003A290ED07D290CD0212924D1D8F814003F
:101BC0007238012824D8D8F818003A2801D07D2886
:101BD0001ED1D8E91921881810F8010C3D2809D127
:101BE000D21A19442846FFF75CFED8F86420013A5F
:101BF000C8F8642058462921FFF710FE2C215846CA
:101C0000FFF70CFEC3E721F020005B280CD1013266
:101C1000C9B25846CDE90232FFF700FE4046FEF752
:101C2000E3FADDE90232BEE75D2808BF02F1FF32C8
:101C3000EEE7BBF1780F09D8BBF15B0F0ED8BBF113
:101C4000220F79D057D8BBF10A0F51D0ABF1300138
:101C5000072900F2C2804FF0030BB5E0ABF15C0244
:101C60001C2AF3D801A353F822F000BF391D0A083B
:101C70004D1C0A084D1C0A084D1C0A084D1C0A0878
:101C8000E11C0A08151D0A084D1C0A084D1C0A080B
:101C90004D1C0A08251D0A084D1C0A084D1C0A087F
:101CA0004D1C0A084D1C0A084D1C0A084D1C0A0848
:101CB0004D1C0A081D1D0A084D1C0A084D1C0A0867
:101CC0004D1C0A08111D0A084D1C0A08191D0A0896
:101CD000291D0A08211D0A084D1C0A08A11D0A0811
:101CE000072198F84C200C2A79D12846FFF79DFD52
:101CF0004FF0000B1EE7BBF1550F15D0A6D8BBF176
:101D0000270F19D0BBF14E0FA0D128480CF0A8F92D
:101D10000D21E6E70821E4E70921E2E70A21E0E7EF
:101D20000B21DEE70C21DCE798F84C200D2A05D1C9
:101D30005C212846FFF779FD5946D2E7BBF1750FC4
:101D40000CBF4FF0040B4FF0080B00211CE0404685
:101D50000291FEF749FAD8F810207F2A05D8144BD3
:101D60000299985C10F0400F04D1012288F84C20B1
:101D70000021B6E7303A092A88BF22F020024FEA54
:101D8000011188BF073A1144BBF1010BDFD2481C97
:101D9000AED0B1F5881FA4D3012288F84C20A7E764
:101DA0004FF0020BD1E700BF6EAD0D0877AD0D0807
:101DB0001CDD0D0840460291FEF716FAD8F81020F7
:101DC0000299303A02EBC101D8F81420303A072AC0
:101DD000DDD8BBF1010BEDD1D9E75C219FE6FF29EE
:101DE000DAD80D2AD8D1C9B22846FFF717FD7FE708
:101DF000CB453CBF032288F84C20ABE62846FEF7D3
:101E000077F9064618B95F2D01D07F2D3FD90922F9
:101E100088F84C2008F15004E9B22046FFF7FEFC98
:101E20004046FEF7E1F9D8F810104A1C0BD00846DE
:101E3000FEF75EF918BB5F2921D07F291FD808461D
:101E4000FEF760F9D8B92046FFF7AEFC764E05469E
:101E5000002456F8041B284637F0B8FF002810D19C
:101E60000F34E4B2122C88F84C407FF479AD6F4AFD
:101E7000D2F8EC21002A0CBF11220F22B9E5C9B219
:101E8000CBE7FFF66DAD0134242CE2D168E528469E
:101E9000FEF738F9044648B92E2D05D1D8F81400BC
:101EA000FEF730F9044618B9614E61E02E2D2CD1B1
:101EB0000B2288F84C2008F1500429462046FFF7F1
:101EC000B4FC4046FEF790F90B25D8F810104B1CD7
:101ED0003FF446AD76BB21F02002452A2AD1652188
:101EE000204688F84C50FFF7A0FC4046FEF77CF9EE
:101EF000D8F810102B2901D02D29E6D12046FFF764
:101F000094FC4046FEF770F9DFE70A22302D88F88E
:101F10004C20D0D1D8F8140040F0200062381628A8
:101F20009FBF444CC440E44304F0010484F0010426
:101F3000E6B2C0E70846FEF7DBF840B90846FEF710
:101F4000E1F820B92E2909D188F84C50D6E72E297E
:101F5000FAD021F020024A2AD0D1F5E75F29D0D06B
:101F6000FEE4652F01D0632F00D101360134013624
:101F700037780FB1BD42F4D14046FEF735F90FB9BD
:101F8000012236E5212F08D1D8F810203D2AF7D1BB
:101F90004046FEF729F93A222BE52E2F11D1D8F829
:101FA00010202E2A03D1D8F814202E2A01D05D2229
:101FB0001FE54046FEF718F94046FEF715F90E22D8
:101FC00017E50336224616F8025C632D11D0652D05
:101FD0000FD019498A5C88F84C2002F0FD01552980
:101FE00001D0592A17D1D8F834200132C8F834204A
:101FF000B6E416F8011CD8F81000884204F1010478
:1020000007D14046FEF7F0F82246652DE1D00236B2
:10201000D9E7632DFAE7562A02D058297FF4A0ACFD
:10202000D8F83420013AE1E7C44B0E083400002010
:1020300029AD0D0801204000984B0E0837B5054624
:102040000846019137F0B4FE044620B102466B68A1
:10205000019928689847204603B030BD2DE9F74F15
:1020600089469DF8301017460D9A11F0DF0F06468D
:10207000A2EB07023DD0302925490CA813BF8046AA
:1020800088464FF0100A4FF0010A13F0800535D052
:1020900002EBD2746510A2EB6404002D35DDAB4673
:1020A000DA45524673683068A8BF5A4641460192E5
:1020B0009847019AABEB020BBBF1000FF0DC2FB19C
:1020C000736830683A46494698473D44002C0CDD19
:1020D0002544A2455746A8BF2746736830683A464C
:1020E0004146E41B9847002CF3DC284603B0BDE8CA
:1020F000F08FDFF820804FF0100AC6E713F00104DC
:1021000001D11546C9E71446D9E70025D7E700BF36
:102110005D1C0E084C1C0E082DE9F04389B00646E4
:102120000020119D9DF84880139F8DF80F000AB381
:1021300081421ADA2D228DF80F204942109A08ACFC
:10214000A2F10A000DF11009B1FBF3FC03FB1C1214
:10215000092A8CBF1218303204F8012D4C458E46E6
:1021600061460ED07345EFD90BE0A80727D52B2287
:102170008DF80F200029E1D130238DF81F300DF1AB
:102180001F0415F040099DF80F301CD023B3012225
:10219000CDE900822B460DF10F013046FFF75EFFBF
:1021A000013F814608AACDE900872B46121B214634
:1021B0003046FFF753FF484409B0BDE8F0836A0793
:1021C000D8D52022D4E7002BECD004AA9442E9D938
:1021D00004F8013C013CE5E79946E3E72DE9F043CB
:1021E00016468BB0B207DDF848900746984640D4B3
:1021F00016F0040F0CBF0023202300930A46139B04
:10220000202102A808F002FBF305044610D5431C68
:102210001F2B0DD800F128020DEB0204252204F833
:10222000202C03F128026A44002102F8201C1C46DD
:1022300016F040051FD09DF808302F2B4FF00003FB
:102240001BD8012202A9CDE900323846FFF706FF6C
:1022500009F1FF390546013C0DF10901CDE900897D
:10226000334622463846FFF7F9FE28440BB0BDE856
:10227000F0832B23C1E702A9F0E702A91D46EDE791
:102280002DE9F04F824689B0144600260B461D46C4
:1022900013F8012B82B9A94211D30B78002B00F05F
:1022A0004681013120234FF000080A4612F8015BF5
:1022B0007DB94FF00A0C2AE0252AE8D1EBE76F1A26
:1022C000DAF80430DAF800003A4698473E442946E6
:1022D000E3E72D2D03D148F001081146E5E72B2D4A
:1022E00002D148F00208F8E7202D02D148F0040896
:1022F000F3E7212D02D148F00808EEE7302D22D176
:1023000048F040082B46E8E70CFB0525303D0F461A
:1023100011F8012BA2F130000928F5D92E2A42D15B
:102320007A782A2A11D00A464FF00A0C0021174663
:1023300012F801BBABF13000092809D80CFB01BB36
:10234000ABF13001F3E70025B3E754F8041B023783
:1023500021EAE17B3A786C2A08BF013797F80090B0
:10236000B9F1000F00F0E380B9F1780F6BD8B9F143
:10237000570F1BD8B9F1470F62D8B9F1440F62D992
:10238000073424F00704F4E80201049338F080F9DC
:10239000CDE9005B00EE100A049B424649465046D8
:1023A000FFF71CFF63E04FF0FF3BD3E7A9F15802B2
:1023B000202A48D801A151F822F000BFFD240A08C4
:1023C00047240A0847240A0847240A0847240A0819
:1023D00047240A0847240A0847240A0847240A0809
:1023E00047240A0859240A087B240A08E1240A0819
:1023F00081230A0881230A0881230A0847240A083E
:1024000047240A0847240A0847240A0847240A08D8
:1024100047240A0847240A0847240A081F250A08EF
:102420008F240A0847240A08B9240A0847240A08FE
:10243000FD240A0847240A0847240A08FD240A083C
:10244000B9F1500F6BD0DAF80430DAF8000001224D
:102450003946984701360BE054F8042BCDE9003596
:1024600043463AB1344904225046FFF7F7FD06448B
:10247000791C0BE731490522F6E754F8042B8DF857
:102480001C20CDE900350122434607A9ECE707A946
:1024900054F8040B0493FEF7F0FFBBF1FF3F049BDD
:1024A000014604D0079A934538BFCDF81CB0CDE95A
:1024B0000035079A4346D7E754F8041B05930846AE
:1024C000049137F075FCBBF1FF3FDDE904130246D0
:1024D00002D0584528BF5A46CDE900354346C3E7E8
:1024E000CDE9023561230093CDF804800A2301224F
:1024F00054F8041B5046FFF70FFEB8E729F00F020F
:1025000009F101010F3A01F00601D2B2CDE902351D
:10251000CDF804800092C1F110030022E8E7CDE974
:10252000023561230093CDF804801023F5E730468F
:1025300009B0BDE8F08F00BF88AD0D088DAD0D0866
:102540000EB403B503AA52F8041B0192FFF798FEDC
:1025500002B05DF804EB03B0704790F90010037807
:102560000029024601DB1846704703F07F00402334
:10257000184206D112F8013F03F0C001802904D0AF
:10258000704720EA03005B08F2E703F03F0343EAE9
:102590008010EFE701440346002099421A4600D814
:1025A0007047127802F0C002802A03F1010318BFBD
:1025B0000130F2E710B501440246E52400209142C3
:1025C00003D8B0FA80F0400917E012F8013B30B1AF
:1025D00003F0C003802B11D10138C0B2EFE7BF2B4D
:1025E00009D9F72B09D8D80800F0060044FA00F002
:1025F00000F00300E3E71B06E1D510BD0020FCE777
:10260000023981420B4603D31A880239002AF8D0D6
:102610000233181A40107047994210B511D313D8DD
:1026200000EB410002EB410209B9084610BD30F849
:10263000023D32F8024D1B1B002B02DB04D1013995
:10264000F2E74FF0FF30F1E70120EFE7B2EB131FA5
:1026500070B505464FEA131614D9901B03F00F040A
:1026600001EB460102460E46012A31F8023B18BF33
:102670003368E3409BB2013A25F8023BF3D103B93A
:10268000013870BD0020FCE7F0B5059F0024D21B87
:102690002646A74210D100EB470C01EB470100246E
:1026A000A24214D10CEB42031EB101212CF81210EE
:1026B0000233181A4010F0BD31F8145033F814C02A
:1026C0006544354420F814502E0C0134E1E731F80C
:1026D000145035442CF814502E0C0134E0E7F0B4BB
:1026E000049F0025D21B2C46AF420BD100EB4706BE
:1026F00001EB470500239A420FD106EB4201F0BCE3
:10270000FFF77EBF31F81560344433F81560A41B21
:1027100020F8154024140135E6E735F813100C4471
:1027200026F8134024140133E5E72DE9F043079C14
:10273000DDF828E0DDE908760239154684464FF6D3
:10274000FF78A4EB020955B900EB42011FB1012348
:1027500020F812300231BDE8F043FFF751BF31F8E5
:10276000024F013D4444264405EB0904AC4296BFA8
:1027700033F8024B4FF6FF744444744486EA040E67
:1027800017FA8EF72CF8027B4FEA144E360C3F0CEA
:10279000D9E728B103789B0702D48068FEF7E8BC2C
:1027A000704710B5044638B18068FEF7E1FC20465A
:1027B000BDE81040FEF7DCBC10BD38B50229044668
:1027C000806838BF02210D4618B12368B1EB930F22
:1027D00007D96900FEF70FFA2368A06065F39F032D
:1027E000236038BD38B504460C20FEF739F923685C
:1027F0002278054602F00102C3F39D0023F0030393
:1028000013432B6063686B604000FEF729F9A860F2
:102810002268A168C2F39D02520037F04BFA2846A5
:1028200038BD38B505460C464968FFF7C6FF227823
:102830002B78A86862F300032B7063686B60626892
:10284000A1685200BDE8384037F034BA73B50C4681
:1028500016460546D2E90132D1E90110FFF7DCFE48
:102860000028BEBF234634461E462378327861686E
:102870005340DB071BD401312846FFF79EFF7368E6
:102880000093D4E90121B368A868FFF7FDFE6860F2
:1028900023786A68C3F30003002A0CBF002303F007
:1028A00001032A7863F300022A7002B070BD284643
:1028B000FFF783FF73680093D4E90121B368A86828
:1028C000FFF70DFFE3E72DE9F04F4B6885B00446B5
:1028D0000E4615460BB1536843B923786FF30003D6
:1028E00023700023636005B0BDE8F08F81422ED1D4
:1028F000FFF778FFA5420646074600D105466B68FC
:10290000716820461944FFF758FF2268A068C2F397
:102910009D025200002137F011FAB368D4F808E0A4
:10292000D6F804900193AB68029300226B6803937E
:102930000EEB4908F4461146039B934231D0DDF873
:1029400004B0CDF80090ACF10200002318E0824200
:1029500004D1FFF747FF05460746D0E70027CEE73B
:1029600030F802AF53441946029B3BF802AB33F8F0
:10297000123003FB0A130099038001391B0C0091EC
:1029800000990029ECD14146881C13B1A8F8003009
:102990000146A1EB0E0149100CF1020C01328046F8
:1029A000CAE761602A78337853402278384663F367
:1029B0000002227005B0BDE8F04FFFF7F2BE10B57F
:1029C000D0E90121034601EB42020020914204D3E9
:1029D0001B78DB0748BF404210BD32F8024D44EA85
:1029E0000040F3E72DE9F0470546D1B19818D5E945
:1029F00001840026A4F1020E4FF0010C374603EBD0
:102A00000209B8F1000F0ED1B9B3C21A18462B78DB
:102A100013F0010FBDE8F04714BFFF21002137F08C
:102A20008DB91846E3E73EF8024F103744EA0646F0
:102A300095F800A0072F0AF0010A02DC08F1FF3820
:102A4000DFE7B4B2BAF1000F06D0E4435CFA84FCCD
:102A50001FFA8CF4CCF3072CE4B249B100F1FF3A31
:102A600000F8014C53450BD0083F360A5046DFE7CB
:102A700082460AF8014BCA45F5E713441A1AC6E71D
:102A8000BDE8F087D0E901329FED0C0A9FED0C7A8A
:102A900002EB43039A4205D30378DB0748BFB1EE4C
:102AA000400A704733F8021D07EE901AF8EEE77AF5
:102AB000E0EE077AB0EE670AECE700BF0000000026
:102AC0000000804738B505460C460221FFF775FE29
:102AD000002C2B78B4BF0122002262F300032B707C
:102AE0004FF00003B8BF64426B6004B938BDD5E94C
:102AF0000132581C686022F81340240CF5E72DE9D8
:102B0000F04F0C4651688FB0904601310546029354
:102B1000FFF753FED8F80420A868013252000021C4
:102B200037F00CF92B7800266FF300032B706E60E2
:102B3000D8F8041020460131FFF73FFE41462046F9
:102B4000FFF76FFE029BA768D4F80490D3E9013A1F
:102B50000193AB6803935246019B49463846FFF701
:102B60005BFD002836D1039A6060012313806B60FF
:102B700023786168C3F3000200290CBF002202F031
:102B8000010262F30003029A237098F80030127871
:102B90005340DB071BD56B682A78003B18BF012325
:102BA00063F300022A7091B100234FF0FF310BA8AC
:102BB000CDE90B330D93FFF785FF0BAA2946284675
:102BC000FFF744FE029A21462046FFF73FFE0FB072
:102BD000BDE8F08F01DA6E60CAE7019B03F10042A5
:102BE000013A4FEA420E3AF81230180406F1010198
:102BF00053D5B3B209F1010007EB490B0021009353
:102C0000C3F1100327F81910BC4660600BF10209EC
:102C10000493CC4545D33AF81220009B02FA03F303
:102C20000493019B012B0AD90AEB0E02009B32F898
:102C3000022CC3F11001CA40049911430491019B75
:102C4000C01A6860039B00F10040013803EB4003A9
:102C500006930EF102030993AAF1020A6368059331
:102C6000059A019B934229D3009B02F1004B0BF183
:102C7000FF3B07EB4B0B0020C3F110065F4573D9F8
:102C80006FF000416B682BB103985A1830F812208E
:102C9000002A74D06FF0004176E05B009BB20E46D4
:102CA000A3E7BCF80060009B06FA03F31943049BFA
:102CB0002CF8021B26FA03F189B2AAE7BBF8001030
:102CC0003BF8022C049B42EA0142B2FBF3F2099B5F
:102CD000ABEB0303CDE9073A00201E468646B34519
:102CE0000ED8BBF800100844002838D1069B23F802
:102CF00002290693059B5A1EABF1020B6260ADE7F9
:102D0000089BB6F8009033F8021F0893009B994087
:102D100041EA1E4E1FFA8EF1514319FA80F91FFA4B
:102D200081FC090CA9EB0C0CC1EB204126F802CB6D
:102D300001EB2C40D3E739F802CF009B0CFA03FCDF
:102D40004CEA1E4EB6F800C011FA8EF1614426F826
:102D5000021B090CB345EED80844013AC4E7002130
:102D6000079ED1468E46F5E7BBF80020009B42FA4D
:102D700003F10143B2402BF8021990B27EE7013B08
:102D80006B607FE7013B63606368002B3FF4F0AE4C
:102D90005A1837F81220002AF4D0E9E67FB5064623
:102DA00001AD742085E80E00FDF75AFE0446034687
:102DB00095E8070043F8046B83E8070001236FF0F0
:102DC00001020025C4E90A320A22C4E90E23C4E93B
:102DD0000C551420FDF744FE2021206404F150001E
:102DE000FEF786FC294604F16000FEF781FC236CA7
:102DF000256720461D80C4E905552561FDF7F4F9D6
:102E00002046FDF7F1F92046FDF7EEF92046FEF7E2
:102E100069FDA36C012B18BF0723204618BF84F857
:102E20004C3004B070BD30B585B001AD04460146EC
:102E300028461EF0C9FC95E80E002046FFF7AEFFBD
:102E400005B030BD10F0010204D040F00100086070
:102E500001207047A8B110F003030FD102793A2A7C
:102E60000ED183680B6013F00100F1D19A0708D1ED
:102E70001868044BC31A58425841704710467047AF
:102E80001846704784170E080346006830B508B925
:102E9000106030BD840702D013600120F9E7446858
:102EA000E5B28D42F8D108301060200AF1E730B564
:102EB000058D04460022954201D8002030BDE36A0A
:102EC00003EBC20043688B42F8D00132F3E770B5E0
:102ED00004460D461646FFF7EAFFC0B9E38C228D83
:102EE0009A4208D30633D900E06AFDF784FEE38CEA
:102EF000E0620633E384238DE26A591C02EBC300CF
:102F0000218502F83360002343704380456070BD23
:102F100010B404460B466278006A012A03D15DF8BA
:102F2000044BFFF7D4BFA16A02461031606A5DF816
:102F3000044B04F0EEB9000070B505460C460029BC
:102F40002ED0CA0706D5836A5B6B4910686ABDE854
:102F5000704018478B0717D004F00F04022C4FEA7B
:102F600011110AD0062C0CD0062919D0836A406AA8
:102F70001B6BBDE87040C9B21847BDE87040FFF751
:102F8000C7BF836A9B6BE1E7836A0968DB68406AB5
:102F900098472279034B214653F822302846D6E73A
:102FA00070BD00BFD4DD0D084B682DE9F04105462A
:102FB0000E461F0A01F108080024BC4201DBBDE8EF
:102FC000F08158F8041B2846FFF7B6FF6B683BB149
:102FD0000234284656F82410BDE8F041FDF7D6B972
:102FE0000134EAE710B50446FFF7DEFFA36A606A22
:102FF000D3F89830BDE81040222118472DE9F04160
:103000004E6801F10804360A054604EB8607BC4207
:1030100008D1AB6A686AD3F89C3031460022BDE81B
:10302000F041184754F8041B2846FFF785FFEEE7E8
:103030002DE9F74F05460C4616461F46002120464F
:10304000FDF788FC40B176B9AB6A9B6E3946686A79
:1030500003B0BDE8F04F184701212046FDF77AFC88
:1030600020B1002EF0D103B0BDE8F08F002C49D084
:10307000A30747D163684FEA132BDBB21E2B33D172
:10308000B6BBD5F80C8008F10103EB600BF1FF3300
:1030900004F1080A4FF00009009386F00102009B3A
:1030A0004B450CDC0BF101013B4654F82110324634
:1030B0002846FFF7BDFFAB6A41469B6AC7E75AF84F
:1030C000041B019243462846FFF7B2FF09F10109AC
:1030D000019AE4E754F8041B3B4632462846FFF7C2
:1030E000A7FFA045F6D1BEE71F2B05D1002EC8D102
:1030F000083404EB8B08F4E7202B03D1A46886F096
:1031000001069BE721462846FFF716FFAB6A686A6F
:10311000DB6E3A46314603B0BDE8F04F184710B5B4
:1031200004468968FFF708FFA36A606ADB6DBDE8A3
:103130001040184770B58D6804463DB9836AD3F8CE
:10314000C4302946606ABDE870401847AB070ED10D
:103150002B795E2B0BD1A968FFF7EEFEE9682046BC
:10316000FFF7EAFEA36A0221D3F8C430EAE7294652
:103170002046FFF7E1FEA36A0121D3F8C430E1E75E
:10318000184B2DE9F041D3F8EC7104460D463FBBD6
:10319000C6688968731CC36001223346FFF748FF85
:1031A000A36A606A5B691F2101229847E96851B1EF
:1031B0002046FFF7C1FEA36A606AD3F8B8503A46CA
:1031C0003B460121A847A36A606AD3F8C4300121B5
:1031D0009847A36A606A9B6A3146BDE8F041184788
:1031E000BDE8F081340000202DE9F347C6680D46A4
:1031F000731CC36004460021A868FDF7ABFB0246C0
:10320000F0B9E768A9687B1CE36020463B46FFF7FE
:103210000FFFE9682046FFF78FFEA8680121FDF740
:1032200099FBD8B92B690BB96B6923B1A36A606AA2
:103230009B6E31469847A36A606A9B6A39469847F5
:1032400001AA712105F11000FFF71EFE002781463B
:103250004F450BD169692046FFF76EFEA36A606A8D
:103260009B6A3146984702B0BDE8F087019B53F84E
:1032700027800021D8F80800FDF76CFB024600BB50
:10328000D4F80CA0D8F808100AF10103E360204636
:103290005346FFF7CDFED8F80C102046FFF74CFE42
:1032A000D8F808000121FDF755FB0028D6D1A36A04
:1032B000606A9B6E31469847A36A606A9B6A514672
:1032C00098470137C4E72DE9F047C668D0F814A045
:1032D000B0F81A9086820D46B31CC36006F101084F
:1032E000038BA0F81680044643830021A868FDF7ED
:1032F00031FB00BBE768A8687B1CE3600121FDF798
:1033000029FB20B9A36A606A9B6E41469847A36A6D
:10331000606A9B6A39469847E9682046FFF70CFEC9
:10332000A36A606A9B6A41469847A9683B460122A6
:103330002046FFF77DFE2969C4F814A02046A4F8B2
:103340001A90FFF7F9FDA36A606A9B6A3146BDE8EF
:10335000F04718472DE9F041C568D1F80C800E46BA
:10336000AB1C04460022D8F80810C3602B46FFF7B8
:103370005FFEB1682046FFF7DFFDA36A606A9B6EBF
:103380006F1C39469847A36A606A9B6A294698472A
:10339000A36A606A9B684FF0FF319847D8F80C1019
:1033A0002046FFF7C9FDA36A606A9B6A3946BDE8FB
:1033B000F04118472DE9F0474E68D0F80C805FFACD
:1033C00086F9A9F11E03D3F1000949EB030908F1BD
:1033D00001030446C360360A01F108050027B7421D
:1033E00006DBA36A606A9B6A4146BDE8F04718475E
:1033F00055F8041B20460137FFF79EFDB742F0DA6F
:10340000A36A606A1B6F424649469847E7E710B5D2
:1034100004468968FFF790FDA36A606AD3F8943088
:10342000BDE81040032118472DE9F0414E680446DD
:103430000D46360A8968FFF77FFD032E83BFD4F857
:103440000C8008F10103E3604FF0000801277B1CAA
:103450009E4222DC032E55DDE568606A6B1CE3604A
:10346000A36A29469B6E9847A36A606A9B6A414695
:103470009847A36A606A9B6801219847A36A606ABB
:103480001B6E9847A36A606ADB6D9847A36A606AFF
:103490009B6A2946BDE8F041184729692046023752
:1034A000FFF74AFDB74207DAA36A606A5B6D984787
:1034B000A36A606A5B6E9847E968A36A606AD3F89A
:1034C000983001F00F020A2A11D1C1F30711262901
:1034D0001ABF3539C9B206219847B74205DAA36A3F
:1034E000606A1B6F4246002198470835AFE70A79AA
:1034F000852A01D13221EFE78A680AB90721EBE773
:103500003321E9E7BDE8F0812DE9F0414E680C4632
:1035100089680546FFF710FDA6F10D085FFA88F8E7
:10352000360A0C340127B74201DBBDE8F08154F8BC
:10353000041B2846FFF700FDAB6A686AD3F8983091
:10354000414698470137EEE7F8B54F680C46896861
:103550000546FFF7F1FC3F0A0C3400260236B7425D
:1035600004F1080400DCF8BD54F8041C2846FFF7F9
:10357000E3FC54F8081CAB6A686AD3F89830090970
:103580002539C9B29847E9E770B50D46C9680446C0
:10359000FFF7D2FCA968A36A606AD3F89430C1F33C
:1035A0000711342918BF4039BDE8704014BFC9B2B3
:1035B0000221184770B54378CE68012B04461546A2
:1035C00006D1036A0A461B8B2946FDF795FA7061FE
:1035D000002371691A462046FCF726FFF168204651
:1035E000FFF7AAFC062D05D1A36A606AD3F88430E0
:1035F00000219847A36A606AD3F8B8500023AC460C
:103600001A46BDE8704001216047896810B403463E
:1036100041B9826A406AD2F89C400A4623465DF866
:10362000044B18474A68120A022A0BD1CA684AB1E9
:10363000940707D11279AC2A04D15DF8044B062215
:10364000FFF7B8BF5DF8044B1846FFF7D7BC70B55D
:103650008D68044645B9836AD3F89C300122294617
:10366000606ABDE870401847A9071ED16B68DAB2DE
:10367000922A1AD11B0A022B0CD1EB6853B19A077C
:1036800008D11B79AC2B05D129460322BDE8704037
:10369000FFF790BF29462046FFF786FC6968A36ABA
:1036A0000122D3F89C30090ADAE729462046FFF7C1
:1036B00043FCA36A0122D3F89C301146D0E710B531
:1036C00004468968FFF738FCA36A606ADB6CBDE8D2
:1036D0001040002118470B79342B70B504460D4675
:1036E00010D18968FFF728FCED68AD6885B9A36A39
:1036F000606A1B6B10219847A36A0422D3F89C30A0
:1037000002211AE0836A406A1B6B10219847ECE79C
:10371000AB071FD12B799A2B13D1A36A606A1B6B5D
:1037200010219847A9680029E6D02046FFF704FC3D
:10373000A36AD3F89C3004220321606ABDE870407C
:1037400018479B2B06D1A9682046FFF7F5FBEB68CD
:103750009968E8E729462046FFF7EEFBCCE738B545
:103760000C460546C968FFF7E7FBA1682846BDE897
:103770003840FFF7E1BB0000024B1B685B6818692B
:10378000704700BF6C03002038B543680D460446FF
:1037900011464BB905480AF0E3F929466060204616
:1037A000BDE83840FCF7F2BD38BD00BF28160E0852
:1037B0008B072DE9F14F04460D46164611D001F056
:1037C0000F03022B16D1D7074FEA111104D401B011
:1037D000BDE8F04FFDF7CDB801B0BDE8F04FFFF701
:1037E00097BB4968CBB22D2B7BD00BD8062B0DD0C5
:1037F0002C2B12D04E4A2946204601B0BDE8F04F8E
:10380000FFF7C2BF2E2B7FD09D2BF3D1002EF1D11D
:1038100005F10802090A20467BE0022A02D0A968C5
:10382000FFF78AFBEF68002FE4D017F00309E1D11E
:103830007B68DAB28E2AB8460DD1022E4FEA1328E1
:1038400005D007F1080A08F1FF3BD94511DB08F163
:10385000010857F8288098F80430312B24D1022E23
:103860000FD1A36A606A5B6E9847A36ADB6C012183
:1038700015E05AF8041B2046FFF75EFB09F1010929
:10388000E3E7D8F808102046FFF756FB012EA36A9D
:10389000ECD19B6D606A9847A36ADB6C0021606A7B
:1038A00001B0BDE8F04F1847322BA3D1012ED4E967
:1038B00009030CD15B6D9847A36AD8F808101B6DFB
:1038C0000022606A090901B0BDE8F04F1847022ED6
:1038D00001D11B6E9847A36AD8F808101B6D01220E
:1038E000EFE7AA68002A85D0002E83D15168090A23
:1038F000022907D1D3682BB1980703D11B79AC2BD0
:103900003FF478AF083286E7002A7FF473AFA968E6
:1039100021B901B0BDE8F04F00F00CB88E0703D11B
:103920000B79922B0A46E1D005F10802012172E7DA
:1039300093AD0D082DE9F84304460D46904601F17C
:10394000FF3900264FF0FF37B9F1FF3F0CD17B1C48
:1039500005D1A36A606AD3F8A830294698470026A3
:10396000AE421DD1BDE8F88358F8261071B18A0720
:103970000CD10B79222B09D101370BD1A36A606AD4
:10398000D3F8AC304A46314698473746013609F1FC
:10399000FF39D9E72046084ABDE8F843FFF7F4BEEF
:1039A00058F82610B74208BF896800222046FFF762
:1039B000FFFE0136D4E700BFA7AD0D082DE9F04F9B
:1039C0008B682DED028B03F00F03022B87B00446AA
:1039D0000E4640F00381CB68002B00F0FF80980773
:1039E00040F0FC801A792C2A40F0F8809A6802F0A6
:1039F0000F01022940F0F28012097C2A40F0EE808B
:103A0000DB681A79302A40F0E9809B68059304AAA4
:103A1000A42105A8FFF738FA431E022B00F2DE802E
:103A2000049901280A6800F0CB800228D1F804A08C
:103A300000F025818D68E90740F1D0806B0800F027
:103A4000CD8032B1930704D11179A639022940F211
:103A5000C580BAF1000F08D01AF0030F05D19AF80B
:103A60000410A639022940F2B980B3687769218B26
:103A700008EE103A3369E66808EE903A63690293FB
:103A8000638B01936183731C311D1AF0010B039347
:103A900006F10208A682E38206F10309E16005D17E
:103AA000514620460392FFF747FA039A11462046F3
:103AB000FFF742FAA26A606A926E49469047A26A8C
:103AC000606A926A41469047A26A606A526D904766
:103AD000002218EE101A2046FFF76AFE18EE901A20
:103AE0002046FFF729FAA26A606A926A711C904721
:103AF00029462046FFF720FAA26A606AD2F8982089
:103B00000E219047A26A606A926A49469047A26A6B
:103B1000BBF1000F58D1936D606A9847A36A606A41
:103B20001B6E9847A36A606AD3F89830002DACBF2B
:103B3000002101219847A36A606ADB6E4246012199
:103B40009847029B6361019B6383002F44D0A36A63
:103B5000606ADB6D9847BBF1000F03D1A36A606A0E
:103B6000DB6D984739462046FFF7E6F9E568606A5D
:103B70006B1CE360A36A29469B6E9847A36A606A40
:103B80009B688BF0010101319847A36A606A9B6AC8
:103B900031469847A36A606ADB6D9847BBF1000F16
:103BA00003D1A36A606ADB6D984727B1A36A606A94
:103BB0009B6A2946984707B0BDEC028BBDE8F08FA1
:103BC00092460325024644E7606A526D904751468B
:103BD0002046FFF7B1F9A5E73D46D6E7E568238B18
:103BE000B4F81A9063836FEA45436FEA5343D4F8FD
:103BF00014A0A3826F1CEB1CF168E3602046E782EF
:103C0000FFF79AF9A36A606AD3F8843001219847D4
:103C1000A36A606A9B6A39469847A36A606AD3F8C8
:103C2000883005F10208414698470022B1682046D5
:103C3000FFF7BEFD31692046FFF77EF9A36A606A8F
:103C40009B6E39469847A36A606A9B6A41469847CB
:103C5000A36A606AD3F88C3098477169C4F814A0DD
:103C60002046A4F81A90FFF767F9A36A606A9B6A76
:103C7000294607B0BDEC028BBDE8F04F184703257D
:103C8000DFE62DE9F7430446904699460F4629B9E9
:103C9000194603B0BDE8F043FFF74EB9C668731C80
:103CA000C360156845B315F0030225D12B797B2B32
:103CB00022D1A9680192FFF73FF9019A31462046C7
:103CC000FCF775FB019AE9682046FFF771FD4B464A
:103CD00008F10402791E2046FFF7D3FFA36A606A49
:103CE000DB6F3146984703212046FCF758FB03B0B1
:103CF000BDE8F043FCF76BBB29462046FFF71CF9F3
:103D0000204600223146FCF752FBA36A606ADB6D55
:103D10009847DCE737B50C46054601AA7A2104F13D
:103D20000800FFF7B1F8E368019A01462846FFF75B
:103D3000A8FF03B030BD2DE9F74F044690460F466B
:103D400029B9194603B0BDE8F04FFFF7F5B8C668CA
:103D5000321DC260D8F8005006F1010A06F1020BCC
:103D600006F10309002D00F0F28015F0030240F087
:103D7000EE8029797B2940F0EA80A968CDE90032FC
:103D8000FFF7DAF8A16A606A496D8847A8212046E2
:103D9000FCF707FC019AE9682046FFF709FD009B44
:103DA0000093314620460222FCF701FBA26A606ABA
:103DB00092680321904708F10402009B791E204677
:103DC000FFF7B9FFA36A606A9B686FF0020198472A
:103DD000A36A606A1B6B10219847A36A606A1B6E16
:103DE0009847A36A606A9B6E51469847A36A606AC7
:103DF0009B6A31469847A36A606A5B6D9847A36ADD
:103E0000606A5B69012221219847A36A606AD3F83E
:103E1000983008219847A36A606ADB6E5A460021F1
:103E20009847A36A606A5B6D9847A36A606A5B6E95
:103E30009847A36A606A1B6E9847A36A606A5B6CC6
:103E40000022A9219847A36A606A5B6E9847A36A1B
:103E5000606A5B6E9847A36A606A5B6D9847A36A65
:103E6000606A1B6D00220A219847A36A606A1B6E74
:103E70009847A36A606A1B6B10219847A36A606A1F
:103E8000D3F8BC5000231A460321A8472046FCF76C
:103E90006FFBA36A606ADB6E4A4600219847A36AFB
:103EA000606ADB6D9847A36A606A1B6B10219847B4
:103EB000A36A606A9B6E49469847A36A606A9B68DA
:103EC00002219847A36A606A9B6A59469847A36A89
:103ED000606A5B6E9847A36A606A5B6E9847A36AE4
:103EE000606A9B6A51469847A36A606A5B6C0022CD
:103EF000A9219847A36A606A1B6B10219847A36A9F
:103F0000606A5B6D9847A36A606A5B6D9847A36AB5
:103F1000606AD3F8BC5000231A460321A847204604
:103F2000FCF726FBA36A606ADB6D9847A36A606AA8
:103F30009B684FF0FF319847A36A606A9B6A4946C5
:103F40009847204603B0BDE8F04FFCF740BA294639
:103F500020460093FEF7F0FFA26A606A526D904718
:103F60002046A821FCF71DFBA26A606AD26D90472B
:103F700015E72DE9F041CD6804460E4635BB0378C0
:103F8000BBB1036A1D78A5B9D121FEF7C1FFB168A5
:103F90002046FEF7D1FFA36A606AD3F8B8602A46CC
:103FA0002B460121B047A36A606ADB6DBDE8F04192
:103FB0001847B168880700F0BC8001F00F03022B9E
:103FC00040F0BE802046FEF7B7FFECE7A90740F0BF
:103FD000BB806B68DAB25B2A14D1ED68002D40F02B
:103FE000B180006A0378072B40F0AA80B16801F025
:103FF0000F03022B40F0A4800422BDE8F041D14021
:10400000FEF765BF562A13D10122B168FFF7D0FB36
:10401000E9682046FEF790FFA968A36A606AD3F8B2
:10402000983009093F39C9B298470222B1687BE04C
:10403000572A40F087801B0A5F1E013355F8231072
:10404000FEF77AFF002F03DDA36A606A5B6D984775
:10405000B16800222046FFF7ABFB08350026BE42C0
:104060006EDA0136BE4203DAA36A606A5B6D984776
:1040700055F8041B00222046FFF79AFBEFE76B6818
:10408000DAB2062A60D1B768002F5DD0BA075BD1DB
:104090007A68D1B2062957D11B0AB3EB122F4FEA27
:1040A000122851D1A8F10203012B4DD8BB6823B1CE
:1040B000980702D11B79222B46D0FB6823B19907C0
:1040C00002D11B79222B3FD0B8F1020F06D03B69F9
:1040D00023B19A0702D11B79222B35D0A96820463B
:1040E000FEF72AFFE9682046FEF726FFB8F1030F26
:1040F00007D120462969FEF71FFFA36A606A5B6E3D
:104100009847A36A606A1B6E9847B96800222046E8
:10411000FFF74EFBF96800222046FFF749FBB8F194
:10412000030F0DD1396900222046BDE8F041FFF7A9
:104130003FBB00293FF446AF0B793A2B7FF442AFE7
:10414000BDE8F081AB079AD029462046FEF7F4FE81
:1041500000226BE72DE9F047C7681E46BB1CC36011
:10416000836A04460D469B6A406A394690469847E2
:10417000A36A606AD3F8883007F101094946984775
:10418000A96800222046FFF713FB2D69002D2DD1D1
:1041900041462046FEF7D0FE236AA06A1978062918
:1041A0001DD1D0F8C830606A2946984720460121C1
:1041B000FCF7F5F8A36A606ADB6D9847A36A606A4A
:1041C0009B6E39469847A36A606A9B6A494698473E
:1041D000A36A606AD3F88C30BDE8F0471847B20094
:1041E000D0F8A450606A0532A847E7E72B79AD2BD9
:1041F00007D1A9683B4600222046FEF719FFED686B
:10420000C4E7E9682046FEF797FEA36A606AD3F820
:10421000843001219847731C424629462046FFF707
:1042200099FFCBE701F00F03022B70B504460FD0C6
:104230000B79492B01D04F2B02D10123A37070BD04
:104240004A2BFCD0502BFAD0482B0DD10D696DB9FB
:10425000A378002BF3D1638A002BF0D020461D4AAF
:10426000BDE87040FFF790BACD68F0E7A37843B39C
:10427000238A8E6801339BB2012B23820ED1618A7F
:10428000D4E90903D1B1D3F89C3000229847A36A3E
:10429000606AD3F89C3002220021984729462046C4
:1042A000FEF74AFEA36A606A9B6B31099847A36ACE
:1042B000606AD3F8A030BDE8704018471B6C98477F
:1042C000E5E7638A0133638229462046BDE87040F2
:1042D000FEF732BEAEAD0D0801F00F03022B2DE943
:1042E000F04705460C4604D1BDE8F0470909FCF744
:1042F00053BB002955D011F0030652D10B792C2B5A
:1043000038D18968FEF718FEE668002E49D016F00D
:10431000030846D17768FAB28E2A334609D13F0A9C
:1043200006F1080907F1FF3AC24510DC013756F8DB
:1043300027301A79312A12D199682846FEF7FCFDF8
:10434000AB6A686ADB6CBDE8F0470221184759F890
:10435000041B2846FEF7F0FD08F10108E4E7322AC5
:104360001FD19968AB6A686A1B6DBDE8F0470222ED
:10437000090918472D2B14D18C6894B163681B0A66
:10438000022B01D1E3683BB904F108076368B6EB7F
:10439000132F0DD3BDE8F0879A07F5D11B79AC2B0D
:1043A000F2D121462846064ABDE8F047FFF7ECB9AE
:1043B00057F8041B2846FFF78FFF0136E6E700BFDA
:1043C000CCAD0D080B79092B70B50CBF858AC58A59
:1043D0004FF6FF739D42044602D1064AFFF7D4F917
:1043E000218B628BA36A606A5B6F8A1A2946BDE8DB
:1043F00070401847E0AD0D082DE9F041026A1278CF
:10440000072A044604D0BDE8F0411A4AFFF7BCB9B8
:104410008D685DB9836A406A1B6B10219847A36A57
:10442000606AD3F8C030BDE8F041184715F00302C8
:104430001DD12B791B2B1AD1C668EF68731CC36082
:10444000B9683346FEF7F4FDA9682046FEF774FD0F
:10445000A36A606AD3F8C0309847A36A606A9B6A0F
:1044600031469847F9682046FEF766FDD7E72946AA
:10447000F9E700BFF9AD0D08F0B58D6805F00F0341
:104480000A2B85B004460E4606D0002D30D0AB076F
:104490002ED12B79652B1ED10395002502AA65210B
:1044A00003A8FEF7F1FC029B002103EB800040F221
:1044B000DA52984215D1F26840F22A439A4236D134
:1044C000236A1F78B7B1394A3146204605B0BDE8A6
:1044D000F040FFF759B9622B0AD1AB680393ED683E
:1044E000DCE753F8047B97420CBF01310331E0E76E
:1044F0000021E0E7A36A606A5B6B9847A36A606A81
:104500009B6B05219847A36A606AD3F89C303A46B2
:104510000121984703AA29462046FCF7BDFFA36A5C
:10452000606ADB6A02223946984705B0F0BDA36A8B
:10453000606A5B6B984706F10C0003AA6A21FEF7DC
:10454000A3FC00270646B742D4E9090311D1D3F8EA
:104550009C30002231469847294602AA2046FCF7A3
:104560009BFF0025B542D4E909030BD1DB6D9847C9
:10457000DBE7039A9B6B52F827209168090998475B
:104580000137E0E7039ADB6A52F82570B968012227
:10459000090901919847FB682BB901992046FCF75E
:1045A000E8F90135DEE71909F8E700BF05AE0D08A7
:1045B00070B51446054612780E46ABB132B1032AE7
:1045C00004D0134ABDE87040FFF7DEB80323237020
:1045D0002B6A616818465B68002BFBD1FEF767FC0D
:1045E00008B10323037070BD6AB901232370036A05
:1045F0002146586834F0F7FF2378012BF3D1054AA0
:1046000031462846DEE7062AEDD0034ADAE700BF46
:1046100017AE0D0824AE0D0831AE0D082DE9F3419B
:104620004378012B04460D461AD10B79102B0CBF91
:104630004FF001084FF0000808D0036A1B782BB92F
:10464000114A02B0BDE8F041FFF79EB801AA6D2102
:1046500005F10800FEF718FC00260746B74202D114
:1046600002B0BDE8F081019B206A53F826100022B9
:104670000909FEF72CFC4346024629462046FFF76F
:1046800097FF0136EAE700BF38AE0D082DE9F04F7D
:104690002DED028B83B0C56801921E460E9B08EE7D
:1046A000103AAB1C0446C3600F4601222946FBF7B3
:1046B0007EFE39462046FEF73FFCA36A606AD3F8C7
:1046C000903005F1010A002251469847A36A606ABA
:1046D0009B6A29469847A36A606AD3F8CC3098470A
:1046E000D4F80C8008F10103E3600027019B9F428E
:1046F0001BDB2046FBF76BFEA36A606AD3F8D03061
:104700009847A36A606A9B6A5146984718EE101A48
:104710002046FEF711FCA36A606A9B6A414603B01B
:10472000BDEC028BBDE8F04F18473346D4F80C902F
:104730001A68009209F10102E260009AD2F808B00A
:1047400004360137BBF1000F47D1019ABA4237D185
:10475000A36A606ADB6D98470025AB46009B204644
:10476000D968FEF7E9FBCDB1A26A606A126B10212D
:104770009047A26A606A926A59469047A36A606A43
:104780001B6B1021984729462046FCF7F2F820467B
:104790002946FCF701F92046FBF719FEA36A606A77
:1047A000D3F89030012241469847A36A606A9B6A19
:1047B00049469847A36A606A9B680121984795E734
:1047C00020461F4A1968FEF7DFFF204603B0BDEC04
:1047D000028BBDE8F04FFBF7FABD1BF003052DD1AE
:1047E0009BF80420762A5B4603D1DD68DBF808B02D
:1047F0002D09A36A606A5B6D984759462046FEF70B
:104800009BFBA36A606AD3F8983008219847A36A93
:10481000606ADB6E4A4600219847002D98D02946F1
:104820002046FCF7A6F8D4F80CB00BF10102E260C8
:10483000594602222046FBF7BAFD8FE70025D8E74C
:104840004EAE0D082DE9F043C76885B016467A1CB8
:10485000C2600D46022239460393DDE90C980446F6
:10486000FBF7A5FD039B16BBA36A606A9B68032147
:10487000984729462046FEF75FFBA36A606A9B685B
:104880006FF002019847A36A606A1B6B102198477A
:10489000A36A606A9B6A3946984720464146FEF7FC
:1048A0004BFB204605B0BDE8F043FBF790BDCDF8CB
:1048B0000090324629462046FFF7E8FEE3E77FB541
:1048C000CD682B79782B06460C4609D1AB6801934D
:1048D0000023009389681A46FFF7B4FF04B070BD47
:1048E000742B03AA4FF0770116D105F10800FEF7EB
:1048F000CBFA2B6902463BB9EB680093A168039B96
:104900003046FFF7C3FEE9E79B680193EB6800932D
:10491000A168039B3046DFE704F10C00FEF7B4FA10
:1049200000230246E9E700002DE9F04F8D682B795E
:10493000032B85B004460AD12946FCF72EF9AA6953
:10494000D38A43F00103D38205B0BDE8F08F026A39
:10495000D28AD20706D4614A294605B0BDE8F04F95
:10496000FEF712BF162B40F0AB80C668E968331D16
:10497000C360FEF7E1FAA36A606A5B6C0022AA21B9
:104980009847A36A606AD3F8BC7000231A46194698
:10499000B847E76863690193638B0093BB1CE360CE
:1049A000238B6383A36A606A9B6AA78207F101086D
:1049B00006F1010B4146A4F816809847012259469A
:1049C0002046FBF7F4FCA36A606A5B6D98472046BB
:1049D000AC21FBF7E6FDA96820460022FEF7E8FEC1
:1049E000A36A606AD3F8903006F1020900224946B2
:1049F0009847A36A606A9B6A59469847A36A606AA7
:104A0000D3F8CC309847A36A606A5B6D9847A36A75
:104A1000606A5B69012240F22F319847A36A606A9D
:104A2000D3F8983008219847A36A606ADB6E06F1D4
:104A3000030A524600219847A36A606ADB6D9847D3
:104A4000A36A606AD3F89030012231469847A36A7E
:104A5000606A9B6A51469847A36A606A9B68012115
:104A600098472046FBF7B3FCA36A606AD3F8D030BE
:104A70009847A36A606A9B6A494698472969204615
:104A8000FEF75AFAA36A606A9B6E41469847019BFB
:104A90006361009B6383A36A606A9B6A314698479F
:104AA00069692046FEF748FAA36A606A9B6A39463C
:104AB0009847A36A606ADB6D05B0BDE8F04F184700
:104AC00003AA7A2105F10800FEF7DEF9EB68039AE4
:104AD00001462046FFF72FF936E700BF66AE0D0806
:104AE00001F00F03022B70B504460D46164602D0A6
:104AF0001E4AFEF749FE31462046FEF71DFAA36A1C
:104B0000606A5B6D98476378012B4FEA15160FD1E9
:104B1000226A1378033B032B0AD85068314602F00F
:104B2000E9FB0278032A09D1206A3146FEF7CFF962
:104B300031462046BDE87040FBF71BBF206A0022CB
:104B40003146FEF7C4F9236A5B685B68002B0CBF33
:104B50000123002304D00278012A04BF002202703E
:104B6000024629462046FFF723FDE1E793AD0D08F5
:104B7000D1E90212FFF7B4BF014AFEF705BE00BF3C
:104B80007DAE0D082DE9F04F87B0CDE90221044636
:104B900005AAA42103A81D46FEF776F90027019077
:104BA000B9463E46B8464FF0010B019B9F4211D1DA
:104BB00026B1A36A606A5B6B49469847029AD4E9BA
:104BC0000903002A73D0D3F8BC4033464246294635
:104BD000A04713E0059B53F827A0BAF1000F5BD064
:104BE0001AF0030F58D19AF80420A62A19D1B00759
:104BF00007D5304A51462046FEF7C6FD07B0BDE84E
:104C0000F08F1D2F01D92C4AF4E70BFA07F2DAF8DE
:104C1000081046F0010649EA02092046FEF78CF921
:104C200020E0A72A0ED1A26A606A126C9047DAF8D7
:104C3000081046F002062046FEF77EF908F101084A
:104C40000137B2E7A82A27D1DAF80C2072B1910710
:104C50000CD11179AA2907D19268DAF808102046F8
:104C6000FFF73EFF0135EBE7AC290FD0DAF808106B
:104C700001F00F02022A01D0104ABBE7A26A606A63
:104C8000926B09099047DAF80C10D4E706225146D6
:104C90002046FEF78FFCE5E7B30701D5084AA9E7F0
:104CA000B8F1000F01D0074AA4E75146B5E7D3F8A1
:104CB000B8408AE78AAE0D0891AE0D0899AE0D088E
:104CC000A6AE0D08ADAE0D0870B50D4641780129B0
:104CD0000446134603D12A46FBF70EFF6861A36A18
:104CE000606A9B6C98476E6900231A4631462046DD
:104CF000FBF79AFBA36AB18A9B6B606A9847E968E5
:104D000029B18B0703D10B79A32B08BF00212046C3
:104D100002230022FFF736FFB08A70BD2DE9F04F65
:104D200085B004460191019BDFF81CA103F1080046
:104D300002AA4221FEF7A8F8236A00261D8B8346AB
:104D4000B1465E450AD1019BD9680B79032B51D13D
:104D50002A462046FBF70CFF054659E0029B53F814
:104D60002630009303AA6C2103F10800FEF78CF8AB
:104D7000039B19680A09732A07460DD02046FEF7DF
:104D8000DBF84FF00108B84528D3009BD96859B12A
:104D90002046FEF7D1F807E0022807D05246204609
:104DA000FEF7F2FC09F101090136CAE759680B095F
:104DB000412B0DD040F2724293420BD040F2495247
:104DC000934209D040F26A329342E7D10425E9E7E1
:104DD0000125E7E70546E5E70325E3E7039B606A6E
:104DE00053F82810A36A00221B6D0909984708F19F
:104DF0000108C8E7442B17D18E682A463146204661
:104E0000FBF7B6FEB269D38A43F001030546D382AD
:104E10000026ABEB0909B1450BD829462046FBF724
:104E2000A8FD05B0BDE8F08F2A462046FFF74CFFED
:104E300092E7A36A606AD3F8B87000231A4601218A
:104E4000B8470136E7E700BFB4AE0D08036A10B5F6
:104E50001A8B0446FFF738FF01462046BDE8104094
:104E6000FBF787BD002389681A46FFF78BBE000059
:104E70002DE9F7438D68044616465DB9002A75D0C2
:104E8000836AD3F89C3002222946606A03B0BDE8E9
:104E9000F043184715F0030740F08A802B79372B31
:104EA00013D132B1836A406AD3F89C3002220121C7
:104EB000984720462946FEF73FF8A36A606AD3F870
:104EC000A03003B0BDE8F04318479F2B70D1EB68CA
:104ED0001A79A12A5AD1A22101AA03F10800FDF7EB
:104EE000D3FFA968804621B38B0722D10B79372BDA
:104EF0001FD136B1A36A411CD3F89C30606A0222EC
:104F00009847A9682046FEF717F8A36A606AD3F8A5
:104F1000A03098474FF00109474510D1B9F1000F73
:104F200024D1A36A606AD3F89C300322791C984785
:104F30001CE02046FEF700F84FF00009ECE7019B6B
:104F400053F82710A9B18E0713D10E79A6F13700B7
:104F5000464246412046FDF7EFFFB9F1000F11D060
:104F60004EB9184A29462046FEF70EFC03B0BDE8AC
:104F7000F0830026EEE7A36A606AD3F8A030984772
:104F80000137C9E7002EFBD00F4AEBE7AB685BB1F6
:104F90009A0709D11B79372B06D10422294603B081
:104FA000BDE8F043FEF706BB052229462046F6E79A
:104FB00029462046FDF7C0FFA36A0322D3F89C30A0
:104FC000012162E7CCAE0D08DAAE0D082DE9F743FA
:104FD0000C4689680546FDF7AFFFE668002E59D0FC
:104FE0007768296AFBB209788E2BA36819BF04F190
:104FF0000C0601273F0A0836072903F00F024ED19D
:10500000022A4AD11A099A2A4BD1326811793029D9
:1050100047D19268002A44D10A212846FDF778FF3B
:105020002A6AD36A128D3AB9424A3168284603B0D7
:10503000BDE8F043FEF7A8BB5978C9070FD55968FA
:105040002846FDF765FF022F0CD8AB6A686AD3F8D3
:10505000B84000231A460221A047012418E0013A73
:105060000833E0E773681A79322AEED1B4682279FE
:10507000302AEAD19968AB6A686A5B6C0122090937
:105080009847A168002301222846FFF77BFD0324EF
:10509000A74227D803B0BDE8F0830024F8E7022A2E
:1050A000FBD140F20332B2EB131FF6D133681A7909
:1050B000302AF2D19C68002CEAD014F00302ECD123
:1050C00023792F2BE9D1AB6A686AD3F8B8400192F3
:1050D00013461146A0473368019A99682846FFF79E
:1050E000C7FEBAE704F10108B84556F824104FEAA4
:1050F00084031AD20A79322A17D13344D3F80490A0
:1051000099F80430302B10D18968AB6A686A5B6CFF
:10511000002209099847D9F80810002301222846DF
:10512000FFF730FD08F10104B2E72846FDF704FF60
:10513000A046F7E7E5AE0D080122FFF799BE000093
:1051400038B5026A1278072A04460B4606D0022AAE
:1051500004D0BDE83840144AFEF716BB9D6885B9F7
:10516000A36A606A1B6B10219847A36A606AD3F830
:10517000C8300021984720460121BDE83840FBF7A0
:105180000EB9AB070BD12B79AF2B08D12046A968FC
:10519000FDF7D2FE2046BDE83840FBF7E9B92946C5
:1051A0002046FDF7C9FEE0E7F8AE0D0810B5026A2B
:1051B0001278072A04460B4606D0022A04D0BDE81E
:1051C0001040064AFEF7E0BA20461946FFF7FEFEF9
:1051D0002046BDE81040FBF7CBB900BF03AF0D0878
:1051E0002DE9F04F0E46016200214270C160337814
:1051F000072B89B00446154605D08D4A09B0BDE895
:10520000F04FFEF7C1BA012A05D0036B021D1B68DF
:10521000C06A294698476378D6F80C90032B10D1C2
:1052200007AA462109F10C00FDF72EFE236B079A11
:105230009B680146E06A984763687083002B40F0E2
:10524000BE80D9F81010C1B101F00F06022E10D1A6
:105250000B09752B42D006D83E2B41D05E2B0DD0CA
:10526000744A2046CAE740F235529342F8D10326E9
:1052700004E0714A2046FEF787FA0226D9F8143076
:10528000059304AA192105A8FDF7FEFD4FF0000AB9
:105290000290029B9A4525D16378012B1AD9236B82
:1052A000E06A5B68314698476378042B12D1E36A61
:1052B000D968236A1A695B8B51600021916011687B
:1052C000D660C3F30A039B02490D43F00503490569
:1052D0000B4313606368002B71D114E00026CDE707
:1052E0000126CBE7049B53F82A100B79082B4FEAD1
:1052F0008A0B02D10AF1010ACBE7052B06D04F4AEF
:105300002046FEF741FA09B0BDE8F08FCB68002BCC
:10531000F5D18B681A792C2AF1D19F6807F00F021A
:10532000022AECD1DB680193002BE8D09807E6D184
:105330001B79302BE3D1019B06AA03F10800A421BD
:10534000FDF7A2FD3F0940F231439F4280461BD149
:10535000012805D1069A136803F00F03022B04D02D
:10536000374A049B53F80B10CAE7E168012D01F19D
:105370000103E3601ED01268236BE06ADB68120948
:105380009847B8B92F4AECE740F25F339F421AD1F1
:10539000012803D1069B1B68DA0701D42A4AE0E7FB
:1053A000012D07D0E16A5B1048685A1E02445B4237
:1053B00013404B606368002B9CD0DDF80490D9F853
:1053C0000030A3609FE740F2AA339F4224D1012816
:1053D00004D9069B1F6817F0010301D11B4AC0E7DF
:1053E000012DE7D07F10069A039352F8230007A9F6
:1053F000FDF728FD039B08B9154AB2E70798039308
:1054000007F092FC39460246E06A01F0A7FF039BD1
:1054100001339845E7D1CDE7012DCBD0236B024670
:10542000D3F810B0E06A069B3946D847C2E700BF00
:105430000EAF0D0824AF0D0828AF0D0839AF0D08C9
:1054400047AF0D0853AF0D0857AF0D0863AF0D08F8
:1054500075AF0D0813B50446B9B101F00F03022B67
:105460000FD10A091046019206F0A0FD0028019A0A
:1054700005DA0749074809F09DF96060002002B08D
:1054800010BD054AFEF780F9F8E70846F7E700BFC8
:1054900080AF0D0870160E0885AF0D080023032A93
:1054A0002DE9F04104460D46164642700162C36084
:1054B00080F8342002D1C08E50BBA063A36A606A1A
:1054C0001B684FF000083146A4F836802A469847FA
:1054D00006212046FAF763FF6778EE68012F04BFC4
:1054E000A5F82280A5F82480B6B1B20714D133798B
:1054F0003F2B11D1B168FDF71FFDA36A606AD3F895
:10550000C0309847A36A606A5B68BDE8F0411847FD
:105510008000FBF7A5FAD0E72B784BB9314620463F
:10552000FDF70AFDA36A1B6B606A10219847E4E748
:10553000072B16D1012F12D10023A370F168574B0E
:1055400046222046FAF753FF2B8B032B07D13169F4
:105550002046FFF77FFFEB8A43EA8010E8827169FB
:10556000DDE7022B1BD1A36A3168DB68606A9847CC
:105570006378012B07D10023A370B168484B4C22FC
:105580002046FAF734FFF1682046FDF7D5FCEB8A98
:10559000DB07B2D5A36A606ADB6D9847C2E7033BBD
:1055A000032B4FD8012FD6F80C8005D1206A042296
:1055B0003946FDF78CFC6F83A36A3168DB68606A4B
:1055C00098472B78032B24D1A36AD3F89C3001226F
:1055D000606A002198472B78062B28D1A36A606A5D
:1055E0001B6C984701212046FDF792FCA36A606A74
:1055F0001B6C9847A36A606A1B6C98470023B268CB
:1056000041462046FEF7A6FD2B78062B7FF475AFAA
:1056100088E7042B04D1A36A0222D3F89C30D7E791
:10562000052BD8D1A36A0322D3F89C30D0E72046BB
:105630000121FDF76DFCA36A606AD3F88430012173
:105640009847DBE7012F04D104220A212846FDF701
:105650003EFC17212046FDF75BFC16212046FBF798
:1056600088F9B168A36A606A9B6B090998471A2197
:105670002046FBF77EF931692046FDF75DFC0A21E3
:105680002846FDF714FC0378042BA36A3FF44BAFC4
:105690001D694288606A0023A8472EE7BF090A08EF
:1056A000C7090A081B4B07B51A6855686C6901469B
:1056B00054B9019018481CF0D3F8184801990AF021
:1056C00085FF174827F00AFE1B6860605E68B369B3
:1056D0000BB19C421AD823686B612046C4680569E7
:1056E00046698769D0F81C80D0F82090D0F824A0B3
:1056F000D0F828B0D0F82CD090ED0C8B90ED0E9B0C
:1057000090ED10ABD0F808E0012070470120FBF7C6
:1057100099F9DCE76C03002095AF0D08ECEB0D0860
:105720003ECC0E082DE9F04F2DED028B1D462D2AA3
:1057300000F1280308EE103A87B004468846164662
:105740000DD10021FAF71BFEC8B1870702D10379FA
:10575000922B14D007B0BDEC028BBDE8F08F922ADB
:1057600020D10021FAF70BFE014640B1880706D18F
:105770000B79952B0AD12046FAF7FAFD013DA6F1E7
:105780001E03012B6FD8A9462F461CE0962BF6D19D
:105790002046FAF7EDFD4B6823F0FF0343F0920338
:1057A0004B60D7E7962A08BF0135E8E71E2E4ED199
:1057B0000121FBF7CFF80146C8B95046FBF7CAF8FC
:1057C000002808BF5F4607F1FF3BB9F1000F0ED07C
:1057D00009F1FF3949462046FAF7D1FD226961698E
:1057E000D21B824641F82200B9F1000FDED1002120
:1057F000594533D16D1A012DACD0A6F12303022BEC
:1058000001D92A2E72D1691E2046FAF7B8FD03A9E4
:10581000FDF718FB002800F08581232E43D0242EAD
:1058200044D0252E0CBF4FF018094FF02209AF1EAF
:10583000002F3EDA002D40F06A81039AD30740F131
:105840006B8142F001012046FBF70AFA82E7002152
:10585000FBF780F80028CAD10121AEE72046FAF70D
:1058600087FD0131C4E7202EC7D100212046FAF779
:1058700086FD00210746FBF76DF888B901213846FF
:10588000FBF768F80028B8D0FA212046FAF770FD37
:10589000204607B0BDEC028BBDE8F04FFBF7E0B946
:1058A0004FF48D71F1E74FF01609C0E74FF017097B
:1058B000BDE739462046FAF762FD04A9FDF7C2FAB2
:1058C000002800F03B81B9F1220F049A07D110465D
:1058D000019207F06BF90028019AC0F22F81039919
:1058E00048460BF09BFE013F0390A1E7A6F126037B
:1058F000022B47D8691E2046FAF741FD03A9FDF7A0
:10590000A1FA002800F04E81A5F10209B9F1000FBB
:1059100090DD09F1FF312046FAF731FD04A9FDF7CA
:1059200091FAA8B149462046FAF729FDC0F30710BD
:1059300043280DD045280BD0049A01922538C7B2D0
:10594000104607F033F91A2F019A0FD8002811DA00
